:020000040800F2
:10000000F804002045010008D3160008BD150008BB
:10001000D11600080F040008851A0008000000002F
:10002000000000000000000000000000D7160008DB
:100030001104000800000000D5160008D9160008B9
:100040005F0100085F0100085F0100085F01000810
:100050005F0100085F0100085F0100085F01000800
:100060005F0100085F0100085F0100085F010008F0
:100070005F0100085F0100085F0100085F010008E0
:100080005F0100085F0100085F0100085F010008D0
:100090005F0100085F0100085F0100085F010008C0
:1000A0005F0100085F0100085F0100085F010008B0
:1000B0005F0100085F0100085F0100085F010008A0
:1000C0005F0100085F0100085F0100085F01000890
:1000D0005F010008791A00085F0100085F0100084D
:1000E0005F0100085F0100085F0100085F01000870
:1000F0005F0100085F0100085F0100085F01000860
:100100005F0100085F0100082D1700085F0100086B
:100110005F0100085F0100085F0100085F0100083F
:100120005F0100085F0100085F0100085F0100082F
:10013000DFF80CD000F04AF900480047551B0008D2
:10014000F80400200648804706480047FEE7FEE71F
:10015000FEE7FEE7FEE7FEE7FEE7FEE7FEE7FEE777
:100160002B17000831010008202A04DB203A21FA6D
:1001700002F00021704721FA02F3D040C2F12002C0
:100180009140084319467047D2B201E000F8012BB4
:10019000491EFBD270470022F6E710B513460A4607
:1001A00004461946FFF7F0FF204610BD2DE9F04D3B
:1001B00081EA030404F0004B21F0004514464FF09F
:1001C000000A23F0004150EA050220D054EA01025F
:1001D0001DD0C5F30A570246C5F31303C1F313003C
:1001E000C1F30A5640F4801543F48013A7EB0608C8
:1001F000101BD64608F2FD3873EB050002D308F158
:10020000010801E092185B41B8F1000F03DA002009
:100210000146BDE8F08D00204FF48011064684466B
:100220000EE0171B73EB050705D3121B63EB0503E9
:1002300006434CEA010C49084FEA300092185B4132
:1002400050EA0107EDD152EA030012D082EA04001D
:1002500083EA0501084305D0101BAB4106D20122F9
:10026000002306E000224FF0004302E06FF001029D
:1002700053101AEB06004CEB085110EB0A0041EB4F
:100280000B01BDE8F04D00F043B870B521F000431C
:1002900003430CD0C1F30A550024D5EB040564EBED
:1002A0000403D617AD1AB34102DB0020014670BD2E
:1002B000201841EB025170BD0EB540F2334102915E
:1002C0000021CDE900110A460B4600F030F803B0DA
:1002D00000BD70B5C1F30A5201F000450024C1F31E
:1002E000130140F2FF3341F480119A4201DA0020F9
:1002F00070BD40F233439A42A2F2334203DC5242D1
:10030000FFF732FF00E090402C43F1D0404270BD37
:1003100010B5141E73F1000408DA401C41F100010D
:1003200092185B411A4301D120F0010010BD2DE964
:10033000F04D92469B4611B1B1FA81F202E0B0FA5B
:1003400080F22032904600F053F804460F4640EA0F
:100350000A0041EA0B0153465A46084313D011469E
:1003600053EA010019D0C8F140025046FFF7FCFEE5
:1003700005460E4650465946424600F039F80843B5
:1003800005D0012004E020463946BDE8F08D00206C
:10039000054346EAE0762C4337430A986305E40AAE
:1003A000A0EB08000022FD0A44EA47540A3002D5B7
:1003B00000200146E9E7010510196941DDE908451A
:1003C00000196941BDE8F04DA2E70000064C074D59
:1003D00006E0E06840F0010394E807009847103415
:1003E000AC42F6D3FFF7A8FE381D0008581D0008E0
:1003F000202A04DB203A00FA02F1002070479140E5
:10040000C2F1200320FA03F3194390407047FEE73E
:100410007047704710B590F821100022022905D0CE
:100420000421816380F82020012010BD01680B6841
:1004300023F00E030B6001680B6823F001030B60CF
:1004400090F84030C46B012101FA03F3636080F837
:10045000211080F82020104610BD00002DE9F05F2B
:1004600090F821100024022903D004218163012483
:1004700085E001680A6822F00E020A6001680A68D5
:1004800022F001020A603F4E3E4FB215DFF8F4C081
:10049000DFF8F090DFF8ECA0DFF8E8B0DFF8E4E098
:1004A0000168783F13011502ACF1640CA9F1500901
:1004B000AAF13C0AABF1280BAEF1140E4FF48018F0
:1004C000B14227D9B9420ED0614512D049451DD05D
:1004D000514518D0594518D0714501D1424615E013
:1004E000294EB14201D1012210E0274E1436B1420B
:1004F00001D110220AE0244E2836B14206D0224A09
:100500003C32914201D11A4600E02A461E49091F99
:100510000A602BE0B94213D0614517D0494522D07B
:1005200051451DD059451DD0714501D142461AE0B3
:10053000B14202D14FF0807215E0134EB14201D1A9
:10054000012210E0104E1436B14201D110220AE00F
:100550000D4E2836B14206D00B4A3C32914201D1B1
:100560001A4600E02A46074980394A60012180F88E
:100570002110002180F82010416B01B188472046EE
:10058000BDE8F09F800002400804024070B50446B8
:1005900000F010F90546601C02D0044800780444BD
:1005A00000F008F9401BA042FAD370BD08000020FB
:1005B0002DE9F84FDFF8C891002409F1040A0AF187
:1005C000040B23460F270BF1040ED1E00125A540B3
:1005D00006EA0502AA4276D1DFF8A8C14E68A6EB6A
:1005E0000C0866452BD00DDC032E34D005DC36B369
:1005F000012E19D0022E2FD11BE0112E16D0122E53
:100600002AD119E0B8F5881F19D006DCB8F5803F6B
:1006100015D0B8F5801F1FD111E0B8F5001F0ED01E
:10062000B8F5041F18D10AE0CB6815E0CB681B1D94
:1006300012E0CB6808330FE0CB680C330CE08B681A
:100640002BB1012B4FF0080303D0456104E00423D4
:1006500002E0056100E00023FF2A01D8064601E020
:1006600000F104064FEA840501D9A5F12005D6F86A
:10067000008007FA05FC28EA0C0803FA05F548EAA9
:100680000508C6F800804D68ED0070D53E4DAE6996
:1006900046F00106AE61AD6924F0030605F00105E0
:1006A00000953A4D06EB050CDCF80850A607360F0E
:1006B00007FA06F825EA0805DFF8D480404503D19B
:1006C0004FF0000825E052E0DFF8C880404502D135
:1006D0004FF001081DE0DFF8C080404502D14FF027
:1006E000020816E0DFF8B480404502D14FF003085D
:1006F0000FE0DFF8AC80404502D14FF0040808E07D
:10070000DFF8A080404502D14FF0050801E04FF02E
:10071000060808FA06F848EA0508CCF808804D688B
:10072000D9F80060ED034D4601D5164300E096432D
:100730002E604D68DAF80060AD03554601D51643CA
:1007400000E096432E604D68DBF80060ED025D46E8
:1007500001D5164300E096432E604D68DEF8006038
:10076000AD02754601D5164300E096432E60641C29
:100770000A681646E2407FF429AFBDE8F88F000012
:100780000004014000001110001002400000014070
:1007900000080140000C014000100140001401401D
:1007A00000180140001C01400AB1016170470904B2
:1007B000FBE7000001488068704700000800002047
:1007C0000248816802781144816070470800002067
:1007D000074810B5016841F010010160032000F0E6
:1007E00075F8002000F006F800F024F8002010BD95
:1007F0000020024070B50D4D04464FF47A71287800
:10080000B1FBF0F00A490968B1FBF0F000F0ECFA36
:1008100048B9102C07D200222146501E00F036F8AD
:1008200000206C6070BD012070BD00000800002039
:10083000140000200C4808B5816941F00101816174
:10084000816901F001010091C16941F08051C161EC
:10085000C06900F0805000900448416821F0E061D8
:1008600041F00071416008BD0010024000000140ED
:10087000002809DB00F01F0201219140400980009F
:1008800000F1E020C0F8001170470000F0B40E4BFA
:100890001B680C46C3F30223C3F10705042D00D9DE
:1008A0000425191D072901D2002300E0DB1E0126C3
:1008B00006FA05F1491E214099409E40761E1640D9
:1008C0003143F0BC01F008B90CED00E0064900F03E
:1008D000070208684FF6FF03184040EA0220034A67
:1008E00010430860704700000CED00E00000FA05BE
:1008F0002DE9F0470F46050061D0434E306800F007
:100900000700B84209D2306820F007003843306051
:10091000306800F00700B84251D128683B4C81078D
:1009200012D5400703D5606840F4E0606060287825
:10093000000703D5606840F4605060606068A96893
:1009400020F0F000084360602878C00728D068686D
:10095000012810D02168022810D0890700292EDA3A
:10096000616821F0030101436160FFF723FF8046C6
:1009700041F288390DE021688903EFE78901EDE74D
:10098000FFF718FFA0EB0801494502D90320BDE895
:10099000F0876068696800F00C00B0EB810FEFD160
:1009A000306800F00700B8420BD9306820F007002B
:1009B00038433060306800F00700B84201D00120B1
:1009C000E5E72878400705D56068E96820F4E0602D
:1009D000084360602878000706D56068296920F41C
:1009E000605040EAC100606000F038F86168084A71
:1009F000C1F30311515CC84006490860064800680D
:100A0000FFF7F8FE0020C2E700200240001002407D
:100A1000201D0008140000200C0000200448054997
:100A200000684968044AC1F30221515CC84070471C
:100A30001400002000100240301D00080448054941
:100A400000684968044AC1F3C221515CC84070473C
:100A50001400002000100240301D000812A185B0D3
:100A60000FC98DE80F0014A0144A00680490516863
:100A7000134801F00C03042B10D0082B0ED1C1F346
:100A80008343C9031DF803000AD5516804AAC1F3C2
:100A90004041515C0A4A5043B0FBF1F005B0704749
:100AA00008494843FAE7000002030405060708095D
:100AB0000A0B0C0D0E0F1010010200000010024076
:100AC00000127A0000093D002DE9F84F040070D0B3
:100AD0002078C04DC00749D06868C0F38100012864
:100AE00007D06868C0F38100022809D16868C00394
:100AF00006D52868800339D560680028E7D035E03E
:100B00006068B0F5803F0BD010B1B0F5A02F11D0C8
:100B1000286820F480302860286820F4802002E0D3
:100B2000286840F480302860606890B1FFF742FE8A
:100B300006460AE0286840F480202860F0E700BFFD
:100B4000FFF738FE801B642873D828688003F7D528
:100B50000CE0FFF72FFE064605E000BFFFF72AFE78
:100B6000801B6428F0D828688003F7D420789A4E38
:100B700080074FF001094FF0000839D5686810F080
:100B80000C0F07D06868C0F38100022809D168689B
:100B9000C00306D42868800714D52069012808D12D
:100BA00010E02069B0B1C6F80090FFF703FE0746D9
:100BB00005E00AE1FFF7FEFDC01B0228C4D8286843
:100BC0008007F7D52868616920F0F80040EAC10085
:100BD00028600DE0C6F80080FFF7ECFD074604E052
:100BE000FFF7E8FDC01B022823D828688007F7D448
:100BF000207800072CD57948A169D9B1C0F80090B8
:100C0000FFF7D8FD074604E0FFF7D4FDC01B02281C
:100C10000FD8686A8007F7D571484FF4FA51006819
:100C2000B0FBF1F0009000BF0098411E0091FAD295
:100C30000EE080E0C0F80080FFF7BCFD074604E04E
:100C4000FFF7B8FDC01B022875D8686A8007F7D483
:100C50002078400760D5E8690027C00008D4E8691B
:100C600040F08050E861E869012700F08050009072
:100C70005C480168C90513D40168834641F480715A
:100C80000160FFF797FD824606E000BFFFF792FD87
:100C9000A0EB0A0064284ED8DBF80000C005F5D5AB
:100CA000E06801280AD008B1052813D0286A20F08E
:100CB00001002862286A20F0040002E0286A40F05F
:100CC00001002862E06841F2883B98B1FFF772FDAD
:100CD00082460BE0286A40F004002862EEE700BF7D
:100CE000FFF768FDA0EB0A0159455AD8286A80072A
:100CF000F6D50CE0FFF75EFD824605E0FFF75AFDF2
:100D0000A0EB0A0159454CD8286A8007F6D41FB1D8
:100D1000E86920F08050E861E06988B36968C1F350
:100D20008101022944D00228C6F8608004D0FFF770
:100D300041FD044638E034E0FFF73CFD074604E09F
:100D4000FFF738FDC01B02282BD828688001F7D494
:100D5000206AB0F5803F05D16868A16820F40030B2
:100D600008436860D4E908010843696821F47411F4
:100D700008436860C6F86090FFF71CFD044606E073
:100D800025E000BFFFF716FD001B022809D82868E0
:100D90008001F7D51BE000BFFFF70CFD001B022808
:100DA00002D90320BDE8F88F28688001F4D40EE052
:100DB0000128F7D06868226A00F48031914204D19A
:100DC000616A00F47010884201D00120EAE7002037
:100DD000E8E7000000100240000042428004424266
:100DE000140000200070004010B5401EB0F1807F5C
:100DF00001D3012010BD4FF0E02460610F21601786
:100E000000F06AFE0020A06107202061002010BDD4
:100E10007047704770B590F83C20012A2CD001240F
:100E200080F83C40022280F83D2003685A689D68A3
:100E300022F070060A6832435A60104B02689A42E8
:100E40000ED00F4B9A420BD0B2F1804F08D00D4B11
:100E50009A4205D00C4B9A4202D00C4B9A4204D1D4
:100E6000496825F080031943916080F83D400021D6
:100E700080F83C10084670BD022070BD002C014077
:100E8000003401400004004000080040000C004015
:100E900010B5040003D094F83D0010B107E0012024
:100EA00010BD002084F83C00204600F01FF802200E
:100EB00084F83D00211D206800F03EFC012084F8EC
:100EC000460084F83E0084F83F0084F8400084F82F
:100ED000410084F8420084F8430084F8440084F818
:100EE000450084F83D00002010BD000008B50068F2
:100EF0000B49884212D10B48C16941F00801C16118
:100F0000C069002200F00800009011463220FFF76F
:100F1000BDFCBDE808403220FFF7AABC08BD0000B8
:100F2000000C00400010024070B5044690F83C00F0
:100F3000012817D0012584F83C50022084F83D0098
:100F40002068826822F0770222F47F42826008687B
:100F5000502830D00DDC20284DD005DC98B3102867
:100F60003BD148E0022070BD302844D0402834D125
:100F700039E0602828D0702806D0B0F5805F2CD0EA
:100F8000B0F5005F29D10AE0CB68D1E901212068E2
:100F900000F018FC2068816841F0770109E0CB6817
:100FA000D1E90121206800F00DFC2068816841F43E
:100FB0008041816011E0CA684968206800F014FC33
:100FC0005021206807E016E0CA684968206800F0F0
:100FD0001CFC6021206800F0FFFB84F83D500020DD
:100FE00084F83C0070BDCA684968206800F0FCFBCA
:100FF00040212068EFE7226801461046EBE7704782
:1010000070B50446006801694FF00005C9438907BF
:1010100015D4C168C943890711D4E91E01610120B3
:101020002077206880698007204602D0FFF7E7FF1D
:1010300004E000F098F8204600F096F82577206844
:101040000169C943490717D4C168C943490713D483
:101050006FF004010161022020772068806910F49C
:10106000407F204602D0FFF7CAFF04E000F07BF883
:10107000204600F079F8257720680169C9430907FF
:1010800016D4C168C943090712D46FF00801016181
:10109000042020772068C0698007204602D0FFF72F
:1010A000AEFF04E000F05FF8204600F05DF8257721
:1010B00020680169C943C90617D4C168C943C90674
:1010C00013D46FF010010161082020772068C069F7
:1010D00010F4407F204602D0FFF791FF04E000F0BB
:1010E00042F8204600F040F8257720680169C9439E
:1010F000C90708D1C168C943C90704D1891E016164
:10110000204600F033F820680169C943090609D474
:10111000C168C943090605D46FF08001016120460A
:10112000FFF776FE20680169C943490609D4C16802
:10113000C943490605D46FF040010161204600F023
:1011400029F820680169C94389060BD4C168C943DD
:10115000890607D46FF0200101612046BDE8704088
:10116000FFF757BE70BD7047704700000068074921
:1011700088420AD106488188491C89B2A1F5E062FB
:101180008180FF3A01D1012141807047000C00406D
:10119000000000207047704770470000F8B50268F3
:1011A00004461068D168536910F00F0F4FF0000526
:1011B00053D003F0010601F4907737435FD0C207A4
:1011C00005D0CA0503D5226C42F001022264420711
:1011D00005D5DA0703D0226C42F0020222648207AE
:1011E00005D5DA0703D0226C42F00402226402071C
:1011F00007D501F02002324303D0226C42F00802EE
:101200002264226C002A34D0800604D5880602D5D8
:10121000204600F02CFB20684069216CC0F3801050
:10122000090700D430B3204600F009FB206841696B
:1012300049061BD5416921F040014161A06BA8B16D
:1012400058494163A06BFFF709F9002811D0A06B42
:10125000416B01B0BDE8F040084783060FD58B060F
:101260000DD52046BDE8F84000F001BB2046FFF751
:1012700093FFF8BD2046FFF78FFF2564F8BD266B6E
:101280002023012E52D1C60650D5CE064ED5106869
:1012900050680090506940062AD5A16B08684068E4
:1012A0000004000CEAD0A68D8642E7D9E085886963
:1012B000202818D0D06820F48070D0602068416960
:1012C00021F0010141612068416921F04001416143
:1012D00084F83E3025632068C16821F01001C160A8
:1012E000A06BFFF797F8A08DE18D401A81B219E04D
:1012F000A08DE18D401A81B2E08D0028BED000297A
:10130000BCD0D06820F49070D0602068426922F090
:101310000102426184F83E3025632068C26822F0F1
:101320001002C2602046FFF736FFF8BD05062BD538
:101330000D0629D594F83D002128F6D1A068B0F516
:10134000805F01D12069B0B1206A411C216221680F
:1013500000784860E08C401E0004000CE084E4D17A
:101360002068C16821F08001C1602068C16841F037
:101370004001C160F8BD206A0088C0F308005060D9
:10138000206A801C2062E5E74006F3D54806F1D5C7
:10139000D168204621F04001D16084F83D3000F052
:1013A0000CF9F8BD2F18000870B5040004D094F8AB
:1013B0003D00002510B106E0012070BD84F83C50CE
:1013C000204600F023F8242084F83D002068C168FE
:1013D00021F40051C160204600F0A4FA20680169A0
:1013E00021F4904101612068416921F02A014161A5
:1013F0002068C16841F40051C1602564202084F850
:101400003D0084F83E00002070BD000030B585B07E
:1014100000240094019402940394006818498842BF
:101420002CD11848816941F480418161816901F4BE
:1014300080410491816941F0040181618069124D0C
:1014400000F0040004904FF400700090022001901E
:101450000320039069462846FFF7AAF82815CDE92E
:101460000004694628460294FFF7A2F800221146BC
:101470002520FFF70BFA2520FFF7FAF905B030BD5C
:1014800000380140001002400008014090F83E3052
:10149000202B0ED159B152B190F83C30012B08D01D
:1014A000012380F83C300023036300F097BA012049
:1014B000704702207047000030B400680E4988422F
:1014C00018D10F480D4990F849300A78C25490F865
:1014D00049204823521CB2FBF3F403FB142280F88A
:1014E00049200023835401204880024630BC05482F
:1014F000FFF7CCBF30BC704700380140000000202F
:101500001C000020B00000202DE9F843044690F8AC
:101510003D001F4616460D4620284CD1C5B1BEB130
:1015200094F83C00012846D0012084F83C004FF09C
:101530000008C4F84080212084F83D00FFF73AF904
:10154000A6848146E684A068B0F5805F03D004E0FD
:101550000120BDE8F883206928B12E465FF0000520
:1015600084F83C800EE00026FAE78021204600F057
:1015700050FAA0B9AEB116F8010B21684860E08CB2
:10158000401EE084E08C4B464FF00002009700289C
:10159000EBD14FF04001204600F03BFA30B1032080
:1015A000D7E735F8020BC0F30800E6E7202084F8FF
:1015B0003D000020CDE70220CBE77047FEE70000AA
:1015C00070B586B0002418480094019402940394E6
:1015D000816941F020018161816901F0200104915C
:1015E000816941F004018161816901F00401049184
:1015F000816941F00801816180690C4E00F00800AA
:101600004FF470750490002229463046FFF7CCF85D
:1016100001210095CDE90114039169463046FEF79A
:10162000C7FF06B070BD000000100240000C014072
:1016300010B586B0002417480094019402940394D6
:10164000049413490594016041F61F41C0E9011457
:1016500040F2CF71C0E903148461FFF719FC08B1AF
:10166000FEF7D7FE4FF48050009069460948FFF717
:101670005BFC08B1FEF7CDFE049404A9054805946F
:10168000FFF7C8FB002801D0FEF7C3FE06B010BD6F
:10169000000C0040680000200C4810B50A490160A9
:1016A0004FF416514160002181600C22C160C0E9F5
:1016B00004128161C161FFF777FE002803D0BDE805
:1016C0001040FEF7A6BE10BD00380140B00000205B
:1016D000FEE7704770477047FFF772B830B58FB0BC
:1016E00028216846FEF757FD14210AA8FEF753FD8E
:1016F00001210804CDE90010002402940225049180
:10170000CDE907504FF4E01009906846FFF7DCF987
:101710000F20CDE90A056802CDE90C4002210AA894
:101720000E94FFF7E5F80FB030BD70470148FFF7A2
:1017300067BC000068000020F0B502681C4B1D4D1E
:101740001D4E1E4F1E4C4FF0804C984209D0A042B7
:1017500007D0604505D0A84203D0B04201D0B842BE
:1017600004D122F0700E4A6842EA0E02984209D073
:10177000A04207D0604505D0A84203D0B04201D0B6
:10178000B84203D122F44075CA682A434D6922F059
:1017900080022A4302608A68C2620A6882629842B2
:1017A00001D0A04201D10969016301214161F0BD6D
:1017B000002C01400004004000080040000C0040E4
:1017C0000034014010B5846842EA032224F47F44C7
:1017D0000A432243826010BD826822F070020A43ED
:1017E00042F007018160704710B5036A046A24F073
:1017F00001040462846924F0F00444EA021423F032
:101800000A020A438461026210BD10B5036A23F024
:10181000100303628369046A23F4704343EA0232CB
:1018200024F0A00343EA01118261016210BD10B5EA
:10183000406A0021C185C184FFF7AEFC10BD01687C
:10184000CA6822F49072CA6001684A6922F00102F3
:101850004A61016B012904D10168CA6822F01002B3
:10186000CA60202180F83E1000210163704708B54E
:1018700090F83E10222901D0022008BD82684FF462
:1018800080539A4201D1016921B1816A9A421BD0E9
:101890004AB10AE00268816A5268C2F308020A800B
:1018A000816A891C08E0026972B10268526802F01C
:1018B0007F020A70816A491C8162C18D491E090438
:1018C000090CC18503D019E002685268F1E701688C
:1018D000CA6822F02002CA600168CA6822F48072D5
:1018E000CA6001684A6922F001024A61202180F839
:1018F0003E10016B012903D0FFF7DEFD002008BD7B
:10190000002101630168CA6822F01002CA60016800
:101910000A68D20602D50A6849680091818DFFF7EE
:101920003AFCEBE770B5044600680169E26821F40F
:101930004051114301612169A0680843616908436E
:101940002168CA6841F20C639A430243CA60206866
:101950004169A26921F44071114341611E49206827
:10196000884202D1FFF76AF801E0FFF757F800EB71
:10197000C00101EB0012606864218000B2FBF0F34B
:10198000B3FBF1F36FF018067343B2FBF0F5B2FB53
:10199000F0F605EB8305322303EB0515B5FBF1F5F6
:1019A000B6FBF1F605F0F00505EB0615B2FBF0F617
:1019B000B2FBF0F0B0FBF1F06FF01802504306EB11
:1019C000800003EB0010B0FBF1F0216800F00F0085
:1019D0002844886070BD0000003801408162828523
:1019E000C28500210164222280F83E2080F83C104C
:1019F0000168CA6842F48072CA6001684A6942F0AC
:101A000001024A610068C16841F02001C160002004
:101A100070472DE9F041984617460E460446069D4C
:101A20001DE0681C1BD02DB1FEF7C4FEA0EB080022
:101A3000A84214D92068C16821F4D071C16020681F
:101A4000416921F001014161202084F83D0084F8C2
:101A50003E00002084F83C000320BDE8F0812068AF
:101A6000006836EA000004D00020B842D9D0002037
:101A7000F3E70120F9E700000148FFF78FBB000002
:101A8000B0000020FEE700000E4910B591F84A2092
:101A90004823885C521CB2FBF3F403FB142281F848
:101AA0004A2000280CD1521E92FBF3F403FB1422AF
:101AB000D2B281F84A20FF2A02D1472281F84A2077
:101AC00010BD00001C000020014A024900F023B8AC
:101AD000391B0008180000200907090E002804DB44
:101AE00000F1E02080F80014704700F00F0000F1D2
:101AF000E02080F8141D704702E008C8121F08C1DA
:101B0000002AFAD170477047002001E001C1121F7E
:101B1000002AFBD170472DE9F04116460F460446D6
:101B2000002503E03946B047641C6D1C207800286E
:101B3000F8D12846BDE8F08138B504468DF800009C
:101B40000A23012269460248FFF7DEFC204638BD21
:101B5000B0000020FEF73CFEFFF7C0FDFFF730FDB0
:101B6000FFF766FDFFF798FD01225A21002000F0E3
:101B70002DF801225A21104600F028F801221149BF
:101B80001148FFF783FC0F4CFF25022660880128CF
:101B9000FCD110E0012802D05A2804D008E001222C
:101BA0000A21002002E001220A21104600F00EF86E
:101BB000FFF76AFF607060780028EBD1658066707F
:101BC000E4E7000000000020B00000202DE9F05FF5
:101BD000814693460846FEF76FFB0022494BFEF70D
:101BE000E5FA0922FEF751FBFEF773FB464D04466A
:101BF0006F154FF460764FF450704FF430714FF41E
:101C00008078B9F1000F3CD0B9F1010F75D0BDE873
:101C1000F05F3EA0FFF758BF5846FEF7B7FC002222
:101C200031462846FEF7C0FD012240212846FEF736
:101C3000BBFD5846FEF7AAFC002249462846FEF79F
:101C4000B3FD012280212846FEF7AEFD5846FEF77F
:101C50009DFC002251462846FEF7A6FD0122414682
:101C60002846FEF7A1FD5846FEF790FC00223146BB
:101C70002846FEF799FD012239462846FEF794FDD5
:101C800001E081468A46641EC6D2BDE8F09F5846F0
:101C9000FEF77CFC002231462846FEF785FD012236
:101CA00039462846FEF780FD5846FEF76FFC0022B5
:101CB00049462846FEF778FD012241462846FEF7B0
:101CC00073FD5846FEF762FC002251462846FEF797
:101CD0006BFD012280212846FEF766FD5846FEF77F
:101CE00055FC002231462846FEF75EFD01224021C8
:101CF0002846FEF759FD02E0FFE782468946641E4A
:101D0000C5D2C2E700807640000C01406572726F58
:101D10007220686173206F636375726564000000F0
:101D2000000000000000000001020304060708098B
:101D30000000000001020304581D000800000020FC
:101D40001C000000F81A0008741D00081C00002088
:101D5000DC040000081B00085A02FF00000000001D
:101D60000100000010000000000000000024F4004A
:041D7000000000006F
:0400000508000131BD
:00000001FF
